:100000000C94DF000C9407010C9407010C94070179
:100010000C9407010C9407010C9407010C94070140
:100020000C9407010C9407010C9407010C94070130
:100030000C9407010C9407010C9407010C94070120
:100040000C946A040C9407010C9438040C94120468
:100050000C9407010C9407010C9407010C94070100
:100060000C9407010C94070100407A10F35A00A089
:10007000724E18090010A5D4E80000E87648170071
:1000800000E40B54020000CA9A3B000000E1F505B1
:10009000000080969800000040420F000000A086FB
:1000A00001000000102700000000E803000000002D
:1000B0006400000000000A000000000001000000D1
:1000C00000002C76D888DC674F0823DFC1DFAE59EB
:1000D000E1B1B796E5E3E453C63AE651997696E87E
:1000E000E6C28426EB898C9B62ED407C6FFCEFBC02
:1000F0009C9F40F2BAA56FA5F490055A2AF75C932D
:100100006B6CF9676DC11BFCE0E40D47FEF520E662
:10011000B500D0ED902E0300943577050080841E45
:10012000080000204E0A000000C80C333333330FA0
:10013000986E12831141EF8D2114893BE65516CF3D
:10014000FEE6DB18D1844B381BF77C1D901DA4BB49
:10015000E424203284725E228100C9F124ECA1E5FE
:100160003D2700000000240027002A0000000000B6
:10017000250028002B000000000023002600290095
:10018000040404040404040402020202020203033D
:100190000303030301020408102040800102040845
:1001A00010200102040810200000000800020100D5
:1001B000000304070000000000000000DE06112418
:1001C0001FBECFEFD8E0DEBFCDBF22E0A0E5B1E09B
:1001D00001C01D92A431B207E1F711E0A0E0B1E047
:1001E000E4E8FAE102C005900D92A035B107D9F715
:1001F00010E0CFEDD0E004C02197FE010E942E0B4D
:10020000CE3DD107C9F70E94B4040C94400D0C9464
:100210000000CF92DF92EF92FF920F931F93CF9344
:10022000DF936C017A018B01C0E0D0E0CE15DF05D1
:1002300089F0D8016D918D01D601ED91FC9101906D
:10024000F081E02DC6010995892B11F47E0102C0D1
:100250002196ECCFC701DF91CF911F910F91FF90B5
:10026000EF90DF90CF900895FC014481558160812B
:10027000718183E791E00C940901089580E090E09A
:100280000895FC01538D448D252F30E0842F90E09C
:10029000821B930B541710F0CF9608950197089581
:1002A000FC01918D828D981761F0828DDF01A80F7E
:1002B000B11D5D968C91928D9F5F9F73928F90E0A0
:1002C00008958FEF9FEF0895FC01918D828D98170F
:1002D00031F0828DE80FF11D858D90E008958FEF4C
:1002E0009FEF0895FC01918D228D892F90E0805C15
:1002F0009F4F821B91098F739927089583E791E09F
:100300000E94720121E0892B09F420E0822F0895D8
:10031000FC01848DDF01A80FB11DA35ABF4F2C91A2
:10032000848D90E001968F739927848FA689B78971
:100330002C93A089B1898C9180648C93938D848D4A
:10034000981306C00288F389E02D80818F7D808319
:100350000895EF92FF920F931F93CF93DF93EC01D9
:1003600081E0888F9B8D8C8D981305C0E889F98971
:10037000808185FD24C0F62E0B8D10E00F5F1F4F8E
:100380000F731127E02E8C8DE8120CC00FB607FCFE
:10039000FACFE889F989808185FFF5CFCE010E94E7
:1003A0008801F1CF8B8DFE01E80FF11DE35AFF4F5D
:1003B000F0820B8FEA89FB898081806207C0EE8919
:1003C000FF896083E889F98980818064808381E086
:1003D00090E0DF91CF911F910F91FF90EF900895E2
:1003E000CF93DF93EC01888D8823C9F0EA89FB89DC
:1003F000808185FD05C0A889B9898C9186FD0FC0D3
:100400000FB607FCF5CF808185FFF2CFA889B989A7
:100410008C9185FFEDCFCE010E948801E7CFDF915F
:10042000CF91089580E090E0892B29F00E947E0111
:1004300081110C9400000895833081F028F48130FC
:1004400099F08230A1F008958730A9F08830B9F092
:100450008430D1F4809180008F7D03C08091800032
:100460008F7780938000089584B58F7702C084B51C
:100470008F7D84BD08958091B0008F7703C08091F7
:10048000B0008F7D8093B0000895CF93DF93282F25
:1004900030E0F901E855FE4F8491F901EC56FE4F2A
:1004A000D491F901E058FE4FC491CC2391F0811111
:1004B0000E941C02EC2FF0E0EE0FFF1FEA58FE4FE7
:1004C000A591B491EC91ED2381E090E021F480E0DE
:1004D00002C080E090E0DF91CF9108951F93CF9309
:1004E000DF93282F30E0F901E855FE4F8491F901A0
:1004F000EC56FE4FD491F901E058FE4FC491CC2345
:10050000C9F0162F81110E941C02EC2FF0E0EE0FB3
:10051000FF1FE459FE4FA591B4918FB7F8941111C4
:1005200005C09C91ED2FE095E92302C0EC91ED2BE5
:10053000EC938FBFDF91CF911F910895CF93DF93FD
:1005400090E0FC01EC56FE4F2491FC01E058FE4F78
:100550008491882361F190E0880F991FFC01EE5986
:10056000FE4FC591D491FC01E459FE4FA591B49181
:10057000611109C09FB7F8948881209582238883F0
:10058000EC912E230BC0623061F49FB7F894388150
:10059000822F809583238883EC912E2B2C939FBFF1
:1005A00006C08FB7F894E8812E2B28838FBFDF9188
:1005B000CF9108958E3008F08E50877080648093BC
:1005C0007C0080917A00806480937A0080917A0028
:1005D00086FDFCCF809178002091790090E0922BED
:1005E00008953FB7F8948091550190915601A091DC
:1005F0005701B091580126B5A89B05C02F3F19F0AF
:100600000196A11DB11D3FBFBA2FA92F982F882792
:10061000820F911DA11DB11DBC01CD0142E0660FED
:10062000771F881F991F4A95D1F708950E942B0DB7
:100630000F931F93CF93DF93EC01888199810097EB
:1006400029F02A813B812617370788F48B016F5FD9
:100650007F4F0E94610C009761F0998388831B8310
:100660000A832C813D81232B11F4FC01108281E04F
:1006700001C080E0DF91CF911F910F910895EF921B
:10068000FF920F931F93CF93DF93FC012481358159
:100690006115710511F480E019C041155105A9F0EB
:1006A0007B01EC018A01020F131FB8010E9418039D
:1006B000882389F3288139818C819D81B701820F3C
:1006C000931F0E94390D1D830C8381E0DF91CF9130
:1006D0001F910F91FF90EF900895CF93DF93EC015E
:1006E00088819981009711F00E94C90B19821882A4
:1006F0001D821C821B821A82DF91CF910895CF93B5
:10070000DF93EC016115710561F0FB0101900020A0
:10071000E9F73197AF01461B570B0E943F03811148
:1007200003C0CE010E946D03CE01DF91CF910895E9
:10073000CF93DF93EC01FB0144815581608171818E
:100740000E943F03811103C0CE010E946D03CE01C0
:10075000DF91CF910895EF92FF920F931F93CF9364
:10076000DF93EC01198218821B821A821D821C827F
:100770006115710521F18B01FB0101900020E9F762
:1007800031977F01E61AF70AB7010E941803811119
:1007900009C0CE01DF91CF911F910F91FF90EF9093
:1007A0000C946D03FD82EC82B80188819981DF9100
:1007B000CF911F910F91FF90EF900C94390DDF9125
:1007C000CF911F910F91FF90EF900895EF92FF92BC
:1007D0000F931F93CF93DF938C017B0161157105FC
:1007E00069F0FB0101900020E9F73197EF01C61B8A
:1007F000D70BBE010E941803811104C0C8010E94DA
:100800006D0308C0F801D583C483B701808191814D
:100810000E94390DC801DF91CF911F910F91FF9078
:10082000EF9008951F920F920FB60F9211242F93FD
:100830003F934F935F936F937F938F939F93AF9368
:10084000BF93EF93FF9383E791E00E948801FF91AC
:10085000EF91BF91AF919F918F917F916F915F9138
:100860004F913F912F910F900FBE0F901F901895B1
:100870001F920F920FB60F9211242F938F939F9375
:10088000EF93FF93E0918301F09184018081E091E7
:100890008901F0918A0182FD12C0908180918C01C2
:1008A0008F5F8F7320918D01821751F0E0918C0141
:1008B000F0E0ED58FE4F958F80938C0101C0808150
:1008C000FF91EF919F918F912F910F900FBE0F90FD
:1008D0001F9018951F920F920FB60F9211242F930D
:1008E0003F938F939F93AF93BF93809151019091CA
:1008F0005201A0915301B09154013091500123E075
:10090000230F2D3720F40196A11DB11D05C026E847
:10091000230F0296A11DB11D209350018093510118
:1009200090935201A0935301B093540180915501CB
:1009300090915601A0915701B09158010196A11DC7
:10094000B11D8093550190935601A0935701B09328
:100950005801BF91AF919F918F913F912F910F902F
:100960000FBE0F901F901895CF93DF93CDB7DEB7D2
:10097000A7970FB6F894DEBF0FBECDBF789484B5AD
:10098000826084BD84B5816084BD85B5826085BD8B
:1009900085B5816085BD80916E00816080936E0019
:1009A000109281008091810082608093810080910B
:1009B00081008160809381008091800081608093BC
:1009C00080008091B10084608093B1008091B0007C
:1009D00081608093B00080917A00846080937A0077
:1009E00080917A00826080937A0080917A008160A1
:1009F00080937A0080917A00806880937A001092C8
:100A0000C10060E08FE00E949E0260E080E10E94F1
:100A10009E0260E08EE00E949E0261E08CE00E94F7
:100A20009E0260E087E00E949E0260E088E00E94F3
:100A30009E02E0918301F091840182E08083E09145
:100A40007F01F09180011082E0918101F09182019B
:100A500080E1808310928B01E0918701F091880101
:100A600086E08083E0918501F0918601808180613C
:100A70008083E0918501F091860180818860808388
:100A8000E0918501F0918601808180688083E0910A
:100A90008501F091860180818F7D808398ECA92E5D
:100AA000B12C8FE00E94DA027C0190937201809356
:100AB000710180E10E94DA029093700180936F01CE
:100AC0008701081B190B10936E0100936D018EE0D6
:100AD0000E94DA0290936C0180936B01B801110FB0
:100AE000880B990B0E94C8092AE038E240EA5BE3D0
:100AF0000E94030A60936701709368018093690103
:100B000090936A0120E030E048EC52E40E94030A2E
:100B10000E94F80ADC01CB01909366018093650185
:100B20001BA21AA21DA21CA21FA21EA24AE0BE0165
:100B30006F5F7F4F0E942B07BE016F5F7F4FCE011B
:100B400082960E94E60368E171E0CE0101960E9460
:100B5000AB03BE016E5D7F4FCE0101960E949803EC
:100B600060E271E00E947F030E94340189819A81D2
:100B70000E94C90B8AA19BA10E94C90B8EE00E9412
:100B8000DA0290936C0180936B01BC01990F880B82
:100B9000990B0E94C8092DE032E348E45EE30E940D
:100BA000030A6093610170936201809363019093E3
:100BB00064011BA21AA21DA21CA21FA21EA28E01CA
:100BC0000F5F1F4F22E044E00E940B07BC01CE01E3
:100BD00082960E94E60363E271E0C8010E94AB03C3
:100BE000BE016E5D7F4FC8010E94980367E371E00C
:100BF0000E947F030E94340189819A810E94C90B5F
:100C00008AA19BA10E94C90BE0905F01F090600156
:100C10008091650190916601E816F90614F061E093
:100C200001C060E08CE00E946E0287E00E944502F5
:100C300090935E0180935D018130910591F48091E4
:100C40005C018823D9F061E08DE00E946E022AE009
:100C5000E20EF11CF0926001E0925F0110925C01E3
:100C60000DC0892B59F480915C01811107C060E0AF
:100C70008DE00E946E0281E080935C0188E00E941A
:100C8000450290935B0180935A0181309105A1F454
:100C9000809159018823E9F061E08DE00E946E02A5
:100CA00080915F01909160010A9790936001809319
:100CB0005F01109259010DC0892B59F4809159019F
:100CC000811107C060E08DE00E946E0281E0809398
:100CD000590180915F0190916001893C91052CF050
:100CE000B0926001A0925F0106C097FF04C010920D
:100CF000600110925F0180915F01909160011BA2E1
:100D00001AA21DA21CA21FA21EA24AE0BE016F5F72
:100D10007F4F0E942B07BE016F5F7F4FCE018296EF
:100D20000E94E60369E371E0CE0101960E94AB03E5
:100D3000BE016E5D7F4FCE0101960E94980367E36E
:100D400071E00E947F030E94340142E050E06DE4B4
:100D500071E083E791E00E94090189819A810E94F4
:100D6000C90B8AA19BA10E94C90B0E94F1022B0111
:100D70003C0188ECC82ED12CE12CF12C0E94F10210
:100D8000DC01CB0184199509A609B709883E934077
:100D9000A105B10558F081E0C81AD108E108F108B1
:100DA00028EE420E23E0521E611C711CC114D104B6
:100DB000E104F10419F70E94120273CEE3E7F1E0B7
:100DC0001382128288EE93E0A0E0B0E084839583E2
:100DD000A683B7838AE091E09183808385EC90E0DD
:100DE0009587848784EC90E09787868780EC90E0F5
:100DF000918B808B81EC90E0938B828B82EC90E0E6
:100E0000958B848B86EC90E0978B868B118E128E5F
:100E1000138E148E0895EF920F931F93CF93DF9349
:100E2000E80147FD02C034E001C034E1E42F440F83
:100E3000FF0BF7FF03C0F195E195F109E32E022FB7
:100E40002E2FAE010E945007CE01DF91CF911F914E
:100E50000F91EF900895BB274A3031F4992322F483
:100E6000BDE2909581959F4F0C943707BB27FB01FE
:100E70005527AA27880F991FAA1FA41710F0A41B93
:100E800083955051B9F7A05DAA3308F0A95DA193ED
:100E9000009779F7B111B1931192CB010C94B60977
:100EA0004F925F926F927F929F92AF92BF92CF923A
:100EB000DF92EF92FF920F931F93CF93DF93CDB703
:100EC000DEB729970FB6F894DEBF0FBECDBF6A011B
:100ED000122FB02E2BE3201720F0FF24F394F00EF6
:100EE00002C0BCE3FB2E0F2D27E0AE014F5F5F4F2A
:100EF0000E94DE08AC018981982F9970913031F001
:100F0000E1FC06C0E0FE06C090E205C09DE203C021
:100F10009BE201C090E0EE2DE07183FF3CC0911197
:100F200002C083E001C084E0811718F4212F281B40
:100F300001C020E0E1110BC0F601822F30E28823CE
:100F400019F031938150FBCFC20ED11C20E09923C0
:100F500029F0D6019C93F60131966F01C6010396E4
:100F6000E2FE0AC03EE4D6013C9341E411964C9364
:100F7000119712963C9306C03EE6F601308341E697
:100F800041833283FC01322F40E2332309F442C013
:100F900041933150FACF82FF44C0911102C083E0E7
:100FA00001C084E0811718F4212F281B01C020E024
:100FB000E1110BC0F601822F30E2882319F0319342
:100FC0008150FBCFC20ED11C20E0992329F0D6011D
:100FD0009C93F60131966F01C6010396E2FE0BC0A9
:100FE00039E4D6013C933EE411963C93119736E4E4
:100FF00012963C9307C039E6F60130833EE6318312
:1010000036E63283FC01322F40E2332319F041935C
:101010003150FBCFFC01E20FF11D10828EEF9FEFEC
:10102000B7C0F1E0911101C0F0E06F2F70E014162D
:10103000150624F49A012F5F3F4F02C021E030E0F3
:10104000260F371FBB2029F06B2D70E06F5F7F4F9D
:1010500002C060E070E0260F371F612F70E0261796
:1010600037071CF4121B212F01C020E03E2D3871E0
:1010700059F4D601322F60E2332319F06D933150C9
:10108000FBCFC20ED11C20E0FF2331F0D6019C9390
:10109000B6016F5F7F4F6B01E1110BC0F601922F1C
:1010A00030E3992319F031939150FBCFC20ED11C3C
:1010B00020E09F2D940F3A81782F7071A72E84FF26
:1010C00003C0313309F49150191624F4993018F003
:1010D00098E001C091E0E42F852F57FF02C0E0E0C7
:1010E00080E06E2F782FE0E0F0E0AEE29A2E3A0139
:1010F000691A71082A01461A570A0B2D10E011953A
:10110000019511096F3F8FEF780729F4D6019C9262
:10111000C60101966C014617570784F066167706DC
:101120006CF47F01E40CF51CA1E0B0E0AC0FBD1F36
:10113000EA0EFB1ED7011196BC9002C090E3B92EB7
:10114000615071093196C60101967C0160177107E3
:1011500024F0D601BC926C01D5CF6417750741F419
:10116000363320F4353321F4A11002C081E3B82EC8
:10117000F601B082F701822F90E2882319F0919353
:101180008150FBCFF701E20FF11D108280E090E06B
:1011900029960FB6F894DEBF0FBECDBFDF91CF9179
:1011A0001F910F91FF90EF90DF90CF90BF90AF9085
:1011B0009F907F906F905F904F900895283008F037
:1011C00027E03327DA01990F311D87FD91600096E2
:1011D0006105710539F432602E5F3D9330E32A9545
:1011E000E1F708959F3F30F080387105610509F0FF
:1011F0003C5F3C5F3D93913008F08068911DDF9328
:10120000CF931F930F93FF92EF92192F987F96958C
:10121000E92F96959695E90FFF27EE53FF4F9927F3
:101220003327EE24FF24A701E701059008940794D3
:1012300028F4360FE71EF81E491F511D660F771F51
:10124000881F991F0694A1F70590079428F4E70ECC
:10125000F81E491F561FC11D770F881F991F661F53
:101260000694A1F70590079428F4F80E491F561F1D
:10127000C71FD11D880F991F661F771F0694A1F7FE
:101280000590079420F4490F561FC71FD81F990FC8
:10129000661F771F881F0694A9F784911095177011
:1012A00041F0D695C79557954795F794E7941A95C9
:1012B000C1F7E8E6F0E068941590159135916591D5
:1012C000959105907FE27395E118F10A430B560B57
:1012D000C90BD009C0F7E10CF11E431F561FC91FEF
:1012E000D01D7EF4703311F48A95E6CFE894015056
:1012F00030F0080F0AF40027021708F4202F239576
:10130000022F7A3328F079E37D932A95E9F710C00C
:101310007D932A9589F60694979567953795179545
:101320001794E118F10A430B560BC90BD00998F03A
:1013300023957E9173957A3308F070E37C932013A4
:10134000B8F77E9170617D9330F0839571E37D9362
:1013500070E32A95E1F71124EF90FF900F911F9110
:10136000CF91DF91992787FD90950895DC01FC01CD
:10137000672F71917723E1F7329704C07C916D93C9
:1013800070836291AE17BF07C8F30895E89409C04F
:1013900097FB3EF490958095709561957F4F8F4FA8
:1013A0009F4F9923A9F0F92F96E9BB279395F695BE
:1013B000879577956795B795F111F8CFFAF4BB0F3C
:1013C00011F460FF1BC06F5F7F4F8F4F9F4F16C0A0
:1013D000882311F096E911C0772321F09EE8872F2A
:1013E000762F05C0662371F096E8862F70E060E0E6
:1013F0002AF09A95660F771F881FDAF7880F96955F
:10140000879597F908950E94160A0C94870A0E94FE
:10141000790A38F00E94800A20F0952311F00C948C
:10142000700A0C94760A11240C94BB0A0E94980A44
:1014300070F3959FC1F3950F50E0551F629FF00127
:10144000729FBB27F00DB11D639FAA27F00DB11D40
:10145000AA1F649F6627B00DA11D661F829F2227C9
:10146000B00DA11D621F739FB00DA11D621F839F50
:10147000A00D611D221F749F3327A00D611D231F26
:10148000849F600D211D822F762F6A2F11249F5774
:1014900050409AF0F1F088234AF0EE0FFF1FBB1F77
:1014A000661F771F881F91505040A9F79E3F510536
:1014B00080F00C94700A0C94BB0A5F3FE4F3983EF2
:1014C000D4F3869577956795B795F795E7959F5FE0
:1014D000C1F7FE2B880F911D9695879597F9089572
:1014E00097F99F6780E870E060E008959FEF80ECD7
:1014F000089500240A94161617061806090608957A
:1015000000240A9412161306140605060895092EDF
:101510000394000C11F4882352F0BB0F40F4BF2B4E
:1015200011F460FF04C06F5F7F4F8F4F9F4F08958E
:1015300057FD9058440F551F59F05F3F71F0479584
:10154000880F97FB991F61F09F3F79F08795089569
:10155000121613061406551FF2CF4695F1DF08C088
:10156000161617061806991FF1CF869571056105A5
:1015700008940895E894BB2766277727CB0197F94D
:1015800008952F923F924F925F926F927F928F9227
:101590009F92AF92BF92CF92DF92EF92FF920F9302
:1015A0001F93CF93DF93CDB7DEB7CA1BDB0B0FB60C
:1015B000F894DEBF0FBECDBF09942A8839884888C9
:1015C0005F846E847D848C849B84AA84B984C8845F
:1015D000DF80EE80FD800C811B81AA81B981CE0F56
:1015E000D11D0FB6F894DEBF0FBECDBFED0108953B
:1015F0000E94FF0A6894B1110C94BB0A08950E94DE
:10160000A00A88F09F5798F0B92F9927B751B0F0EA
:10161000E1F0660F771F881F991F1AF0BA95C9F776
:1016200014C0B13091F00E94BA0AB1E008950C9450
:10163000BA0A672F782F8827B85F39F0B93FCCF303
:10164000869577956795B395D9F73EF490958095F3
:10165000709561957F4F8F4F9F4F0895EE0FFF1F3D
:101660000590F491E02D0994CF93DF93823091059A
:1016700010F482E090E0E0911202F091130220E079
:1016800030E0C0E0D0E0309711F14081518148173F
:101690005907C0F04817590761F482819381209758
:1016A00019F09B838A832BC09093130280931202BC
:1016B00026C02115310519F04217530718F49A0175
:1016C000BE01DF01EF010280F381E02DDCCF2115A7
:1016D000310509F1281B390B2430310590F412969D
:1016E0008D919C9113976115710521F0FB019383F6
:1016F000828304C09093130280931202FD013296FC
:1017000044C0FD01E20FF31F8193919322503109F0
:101710002D933C933AC02091100230911102232B5B
:1017200041F4209102013091030130931102209382
:10173000100220910001309101012115310541F481
:101740002DB73EB74091040150910501241B350B84
:10175000E0911002F0911102E217F307A0F42E1BA2
:101760003F0B2817390778F0AC014E5F5F4F241705
:10177000350748F04E0F5F1F50931102409310023F
:101780008193919302C0E0E0F0E0CF01DF91CF912F
:1017900008950F931F93CF93DF93009709F48CC0A4
:1017A000FC013297138212820091120210911302EF
:1017B0000115110581F420813181820F931F209141
:1017C0001002309111022817390779F5F0931102B0
:1017D000E093100271C0D80140E050E0AE17BF079F
:1017E00050F412962D913C911397AD0121153105BE
:1017F00009F1D901F3CF9D01DA013383228360819E
:101800007181860F971F8217930769F4EC01288175
:101810003981260F371F2E5F3F4F318320838A8106
:101820009B8193838283452B29F4F0931302E093E9
:10183000120242C01396FC93EE931297ED01499168
:1018400059919E01240F351FE217F30771F480812F
:101850009181840F951F029611969C938E9382819D
:10186000938113969C938E931297E0E0F0E0D80159
:1018700012968D919C911397009719F0F8018C01A5
:10188000F6CF8D919C9198012E5F3F4F820F931F51
:1018900020911002309111022817390769F430970E
:1018A00029F4109213021092120202C013821282C3
:1018B0001093110200931002DF91CF911F910F91AD
:1018C0000895A0E0B0E0E7E6FCE00C94C50AEC0166
:1018D000009721F4CB010E94340BB8C0FC01E60F45
:1018E000F71F9C0122503109E217F30708F4ACC03E
:1018F000D9010D911C91119706171707B0F005300B
:10190000110508F49FC0C80104978617970708F4CB
:1019100099C002501109061B170B019311936D9387
:101920007C93CF010E94C90B8DC05B01A01AB10A44
:101930004C01800E911EA0911202B091130240E062
:1019400050E0E12CF12C109709F44AC0A815B90514
:10195000D1F56D907C901197630182E0C80ED11C87
:10196000CA14DB0480F1A3014A195B096A0182E011
:10197000C80ED11C1296BC9012971396AC91B5E08C
:10198000CB16D10440F0B282A38351834083D901A6
:101990006D937C930AC00E5F1F4FC301800F911F90
:1019A000F90191838083EB2DFA2FE114F10431F0DA
:1019B000D7011396FC93EE93129744C0F093130251
:1019C000E09312023FC08D919C91119748175907DF
:1019D00008F4AC017D0112960D90BC91A02DB3CFFF
:1019E000809110029091110288159905E1F4461733
:1019F0005707C8F48091000190910101009741F4CC
:101A00008DB79EB74091040150910501841B950B41
:101A1000E817F907C8F4F0931102E0931002F901F6
:101A2000718360830FC0CB010E94340B7C0100974F
:101A300059F0A801BE010E94300DCE010E94C90BD1
:101A4000C70104C0CE0102C080E090E0CDB7DEB790
:101A5000EEE00C94E10A81E090E0F8940C94400DE3
:101A6000FB01DC0102C001900D9241505040D8F7BB
:101A70000895FB01DC0101900D920020E1F708952B
:041A8000F894FFCF08
:101A840000001402800000000000A90109014101C6
:101A9400F0017201500164015B54656D703A2000DD
:101AA4005D20005B4472656A2057616E7465642032
:101AB40054656D703A20005D005B4B6E6170205779
:101AC400616E7465642054656D703A20000D0A00DF
:00000001FF
